{
  "_format": "hh-sol-artifact-1",
  "contractName": "Transactions",
  "sourceName": "contracts/Transactions.sol",
  "abi": [
    {
      "anonymous": false,
      "inputs": [
        {
          "indexed": false,
          "internalType": "address",
          "name": "from",
          "type": "address"
        },
        {
          "indexed": false,
          "internalType": "address",
          "name": "receiver",
          "type": "address"
        },
        {
          "indexed": false,
          "internalType": "uint256",
          "name": "amount",
          "type": "uint256"
        },
        {
          "indexed": false,
          "internalType": "string",
          "name": "message",
          "type": "string"
        },
        {
          "indexed": false,
          "internalType": "uint256",
          "name": "timestamp",
          "type": "uint256"
        },
        {
          "indexed": false,
          "internalType": "string",
          "name": "keyword",
          "type": "string"
        }
      ],
      "name": "Transfer",
      "type": "event"
    },
    {
      "inputs": [
        {
          "internalType": "address payable",
          "name": "_receiver",
          "type": "address"
        },
        {
          "internalType": "uint256",
          "name": "_amount",
          "type": "uint256"
        },
        {
          "internalType": "string",
          "name": "_message",
          "type": "string"
        },
        {
          "internalType": "string",
          "name": "_keyword",
          "type": "string"
        }
      ],
      "name": "addToBlockchain",
      "outputs": [],
      "stateMutability": "nonpayable",
      "type": "function"
    },
    {
      "inputs": [],
      "name": "getAllTransaction",
      "outputs": [
        {
          "components": [
            {
              "internalType": "address",
              "name": "sender",
              "type": "address"
            },
            {
              "internalType": "address",
              "name": "receiver",
              "type": "address"
            },
            {
              "internalType": "uint256",
              "name": "amount",
              "type": "uint256"
            },
            {
              "internalType": "string",
              "name": "message",
              "type": "string"
            },
            {
              "internalType": "uint256",
              "name": "timestamp",
              "type": "uint256"
            },
            {
              "internalType": "string",
              "name": "keyword",
              "type": "string"
            }
          ],
          "internalType": "struct Transactions.TransferStruct[]",
          "name": "",
          "type": "tuple[]"
        }
      ],
      "stateMutability": "view",
      "type": "function"
    },
    {
      "inputs": [],
      "name": "getTransactionCount",
      "outputs": [
        {
          "internalType": "uint256",
          "name": "",
          "type": "uint256"
        }
      ],
      "stateMutability": "view",
      "type": "function"
    }
  ],
  "bytecode": "0x608060405234801561001057600080fd5b50610808806100206000396000f3fe608060405234801561001057600080fd5b50600436106100415760003560e01c80632e7700f014610046578063add6415d1461005c578063cc2d7ead14610071575b600080fd5b6000546040519081526020015b60405180910390f35b610064610086565b604051610053919061041a565b61008461007f36600461057e565b610241565b005b60606001805480602002602001604051908101604052809291908181526020016000905b828210156102385760008481526020908190206040805160c0810182526006860290920180546001600160a01b0390811684526001820154169383019390935260028301549082015260038201805491929160608401919061010b9061060a565b80601f01602080910402602001604051908101604052809291908181526020018280546101379061060a565b80156101845780601f1061015957610100808354040283529160200191610184565b820191906000526020600020905b81548152906001019060200180831161016757829003601f168201915b50505050508152602001600482015481526020016005820180546101a79061060a565b80601f01602080910402602001604051908101604052809291908181526020018280546101d39061060a565b80156102205780601f106101f557610100808354040283529160200191610220565b820191906000526020600020905b81548152906001019060200180831161020357829003601f168201915b505050505081525050815260200190600101906100aa565b50505050905090565b60016000808282546102539190610644565b90915550506040805160c0810182523381526001600160a01b03868116602083019081529282018681526060830186815242608085015260a08401869052600180548082018255600091909152845160069091027fb10e2d527612073b26eecdfd717e6a320cf44b4afac2b0732d9fcbe2b7fa0cf6810180549286166001600160a01b031993841617815596517fb10e2d527612073b26eecdfd717e6a320cf44b4afac2b0732d9fcbe2b7fa0cf7820180549190961692169190911790935590517fb10e2d527612073b26eecdfd717e6a320cf44b4afac2b0732d9fcbe2b7fa0cf8830155519192917fb10e2d527612073b26eecdfd717e6a320cf44b4afac2b0732d9fcbe2b7fa0cf99091019061036b90826106ba565b506080820151600482015560a0820151600582019061038a90826106ba565b5050507f416cfa4330a4565f45c2fd2dd4826a83a37443aba2ce6f79477c7355afac35fa3385858542866040516103c69695949392919061077a565b60405180910390a150505050565b6000815180845260005b818110156103fa576020818501810151868301820152016103de565b506000602082860101526020601f19601f83011685010191505092915050565b60006020808301818452808551808352604092508286019150828160051b87010184880160005b838110156104cd57888303603f19018552815180516001600160a01b039081168552888201511688850152868101518785015260608082015160c08287018190529190610490838801826103d4565b92505050608080830151818701525060a080830151925085820381870152506104b981836103d4565b968901969450505090860190600101610441565b509098975050505050505050565b634e487b7160e01b600052604160045260246000fd5b600082601f83011261050257600080fd5b813567ffffffffffffffff8082111561051d5761051d6104db565b604051601f8301601f19908116603f01168101908282118183101715610545576105456104db565b8160405283815286602085880101111561055e57600080fd5b836020870160208301376000602085830101528094505050505092915050565b6000806000806080858703121561059457600080fd5b84356001600160a01b03811681146105ab57600080fd5b935060208501359250604085013567ffffffffffffffff808211156105cf57600080fd5b6105db888389016104f1565b935060608701359150808211156105f157600080fd5b506105fe878288016104f1565b91505092959194509250565b600181811c9082168061061e57607f821691505b60208210810361063e57634e487b7160e01b600052602260045260246000fd5b50919050565b8082018082111561066557634e487b7160e01b600052601160045260246000fd5b92915050565b601f8211156106b557600081815260208120601f850160051c810160208610156106925750805b601f850160051c820191505b818110156106b15782815560010161069e565b5050505b505050565b815167ffffffffffffffff8111156106d4576106d46104db565b6106e8816106e2845461060a565b8461066b565b602080601f83116001811461071d57600084156107055750858301515b600019600386901b1c1916600185901b1785556106b1565b600085815260208120601f198616915b8281101561074c5788860151825594840194600190910190840161072d565b508582101561076a5787850151600019600388901b60f8161c191681555b5050505050600190811b01905550565b6001600160a01b038781168252861660208201526040810185905260c0606082018190526000906107ad908301866103d4565b84608084015282810360a08401526107c581856103d4565b999850505050505050505056fea2646970667358221220a174e5ced864b6de86a9d4d5cdcc98a857b504cf2fea3b3a7cabbafc44f7dc1564736f6c63430008120033",
  "linkReferences": {},
  "deployedLinkReferences": {}
}